:020000040001F9
:10B00000F86E002069B1010083B1010085B1010033
:10B010000000000000000000000000000000000030
:10B0200000000000000000000000000087B10100E7
:10B03000000000000000000089B101008BB1010098
:10B040008DB101008DB10100311F0200950C02008D
:10B050008DB1010000000000C5D10100D1B3010095
:10B06000011502008DB10100491502008DB10100EA
:10B070008DB101008DB101008DB101008DB10100D4
:10B080008DB10100610402008DB101008DB101009C
:10B09000190D02008DB10100210D02008DB10100DA
:10B0A0008DB101008DB10100000000000000000022
:10B0B0000000000000000000000000000000000090
:10B0C0000348854600F046F9004800470D6102003C
:10B0D000F86E0020401E00BF00BF00BF00BF00BFD1
:10B0E00000BF00BF00BF00BF00BF00BF00BFF1D165
:10B0F00070470000401E00BF00BF00BF00BF00BF80
:10B1000000BF00BF00BF00BF00BF00BF00BFF1D144
:10B1100070470000056885F308884068FF2464B222
:10B12000EFF30585002D01D1A646004725460646CA
:10B1300021273FBAF0B40024002500260027F0B4F0
:10B14000F92040B200470000401E00BF00BF00BF12
:10B1500000BF00BF00BF00BF00BF00BF00BF00BFF7
:10B1600000BFF1D1704700000321094802680A437B
:10B170000260084802680A4302600748804707489F
:10B180000047FEE7FEE7FEE7FEE7FEE7FEE700001A
:10B19000240500405405004035140200C1B00100F0
:10B1A00030B50B46014600202022012409E00D465F
:10B1B000D5409D4205D31D469540491B25469540E7
:10B1C00040191546521E002DF1DC30BD70B500242B
:10B1D0002546002801DA01244042002901DA012530
:10B1E0004942FFF7DDFFAC4200D04042002C00D0C6
:10B1F000494270BDF0B51FB40646002082B0054636
:10B200004024019100901BE0019922460F463046F0
:10B2100000F08EF8049A059B801A994110D31046CD
:10B220001946224600F074F8361A8F4101972246DB
:10B2300001200021009F00F06BF838184D4100906C
:10B240002046641E0028DFDC019B00982946324618
:10B2500007B0F0BD0549064A08685043054A801802
:10B260000860400870470149086070478823002043
:10B270006D4EC6413930000003460B439B0703D097
:10B2800009E008C9121F08C0042AFAD203E00B78AB
:10B290000370401C491C521EF9D27047D2B201E023
:10B2A0000270401C491EFBD270470022F6E710B521
:10B2B00013460A4604461946FFF7F0FF204610BD24
:10B2C00030B505462A460B4610781C78521C5B1C8C
:10B2D000002801D0A042F7D0002C03D0002802D0D3
:10B2E0006D1CEFE7284630BD421C0178401C002948
:10B2F000FBD1801A704730B504460020034600E0B9
:10B300005B1C934203D2E05CCD5C401BF8D030BDA7
:10B3100010B5202A04DB0146203A9140002010BDE0
:10B32000914020239C1A0346E3401943904010BDEE
:10B3300010B5202A04DB0846203AD040002110BD79
:10B340000B46D340D0402024A21A9140084319460E
:10B3500010BD0000064C0125064E05E0E36807CC51
:10B360002B430C3C98471034B442F7D3FFF7ACFEA4
:10B37000589E0200789E020070B58C180578401C1B
:10B380006B075B0F01D10378401C2A1106D10278AC
:10B39000401C03E006780E70401C491C5B1EF9D16E
:10B3A0002B0705D40023521E0DD40B70491CFAE75D
:10B3B0000378401CCB1A921C03E01D780D70491CC9
:10B3C0005B1C521EF9D5A142D8D3002070BD0000ED
:10B3D000F0B5154C0026E0680125144F83B0002815
:10B3E00011D006F0A5FE00280BD00120B8606946F8
:10B3F0000E70E0680190207C0881A5742168684681
:10B40000884703B0F0BD0A4806600120B8600948CB
:10B41000066069460D7080688880A574216868465A
:10B42000884703B0F0BD00009C2D00200073004051
:10B43000007100400075004010B50A461023024913
:10B4400000F004F810BD00002A2F0020F8B51446C3
:10B450000D4601461A462046FFF70EFF1D4F7D6040
:10B460003C6002F059FA0A2000F058FC09241A4DF9
:10B4700002F06EF93E680021002082009219535CB0
:10B48000401CEB5CC0B253540428F6D3491CC9B22B
:10B490000429F1D3204600F041FC02F091F8641E2B
:10B4A0002406240EE4D102F053F93C680021002068
:10B4B00082001219535C401CEB5CC0B25354042848
:10B4C000F6D3491CC9B20429F1D3002000F026FCB0
:10B4D000F8BD0000F42100207C98020030B58DB04A
:10B4E0000C460546102209496846FFF7C5FE1022A2
:10B4F000294604A8FFF7C0FE68464DDF102220460B
:10B5000008A9FFF7B9FE0DB030BD00002A2F0020BA
:10B51000064A927BD20708D108B56A4610700448E3
:10B520005170C1686846884708BD704724300020C4
:10B530007C960200F7B521490746887E0022204EFE
:10B54000204C214D032804D0002804D0012816D017
:10B5500009E08A7607E03846019902F075FE012875
:10B5600001D000280CD06888401C688000F038FAB0
:10B57000688805280BD31548F08203B0F0BD8A76A1
:10B58000688805280BD300F02BFA03B0F0BD002328
:10B590003A462168019800F019FB03B0F0BD042081
:10B5A00070830120F072034621680198062F3A4605
:10B5B00000D1001D00F00AFB03B0F0BD442F0020B5
:10B5C000A0220020E0210020E8220020FC0A000048
:10B5D00010B4134A134C1268431C01D0824204D2A7
:10B5E0001520207010BC7F2070474B1C05D0002810
:10B5F00006D0904207D88A4205D810BC0020704778
:10B600009142FAD209E08A4207D9162020700649F1
:10B610004E20888310BC0520704710BC0120704765
:10B62000E02100200C220020A022002030B40C4A8F
:10B630000346D47815795279E406AD06E40B2D0D56
:10B6400092066419920EDB03C9030120A218DB0BDA
:10B65000C90B934202D8914200D3002030BC7047FE
:10B66000E8210020F0B58FB000200D9000900C90E4
:10B67000089009900A900B900BF0E0FE00F08AFE13
:10B6800005463D483D4C8079800708D53C492078E7
:10B69000087160784871A0788871E078C87139487D
:10B6A000394E00780127002806D004223349374854
:10B6B000FFF721FE002819D0002D1AD0344F042D99
:10B6C00025D0032D10D100F08BF9E0786946087081
:10B6D000A0784870607888702078C8700023212294
:10B6E0006846396800F072FA0FB0F0BD77720FB09B
:10B6F000F0BD2848057804F041FBFF22182102A87C
:10B70000FFF7CCFD032D21D0042D1FD027E0224DC3
:10B710006888401C688000F063F96888052803D3B6
:10B720001E48F0820FB0F0BDE07869460870A0783E
:10B730004870607888702078C870164800230278B6
:10B740006846396800F042FA0FB0F0BDE07869460B
:10B750000870A0784870607888702078C87002AA55
:10B7600069462846FFF7E6FEFF203770F53000F007
:10B77000F3FD0FB0F0BD00006C3200209C220020D1
:10B78000C0220020A6210020A0220020C8220020E4
:10B79000E02100208F220020E8220020FC0A000087
:10B7A00070B5FF2211491248FFF778FD00F0BCFC8C
:10B7B000104D0024FF2229460F48FFF76FFD204659
:10B7C00005F024FB641CE4B20A2CF3D30B4D0024D7
:10B7D000FF2229460A48FFF761FD204600F040FE9F
:10B7E000641CE4B20A2CF3D370BD000068090000A9
:10B7F00028410020840C0000904A0020A40F000083
:10B800001457002010B5FF220B490C48FFF746FDE6
:10B810000A490B480860002005F002F8094CFF2196
:10B82000204606F06CFC002020706070A070E07074
:10B83000A08004F05BFF10BDCC0B00005035002051
:10B84000411042481C41002070B5154D284606F0B5
:10B8500016FC144A00200C21414389184968491CF0
:10B8600002D02988491C2980401CC0B2C828F2D3C4
:10B870000D4E0024204605F0ADFA00210801801984
:10B880004068401C02D06888401C6880491CC9B2CE
:10B89000C829F3D3641CE4B20A2CEBD370BD0000BA
:10B8A0006823002028410020904A00200C225043A9
:10B8B000154A80188268521C01D1144A82600279AC
:10B8C00052080A708268120E4A708268120C8A70DE
:10B8D0000289120ACA70027A0A71FF224A718A71B9
:10B8E000CA710A720279D207D20F4A72C268120E66
:10B8F0008A72C268120CCA728289120A0A73007BA9
:10B900004873012070470000503500205555AAAA01
:10B91000072808D201007944097949188F440305A2
:10B920000505050305000120704700207047000051
:10B9300010B50D4800248481C481048244820B48E0
:10B94000817E022900D184760948047102F0A6FAAA
:10B9500000F0C0FB04F0A0FEFFF776FF05490120D0
:10B9600008800548047010BDA0220020442F00204C
:10B97000E8220020182200208123002010B582B088
:10B980006C46A0702271E1702380054C6846E16826
:10B990008847002122690846904702B010BD000088
:10B9A000449E02000A49002048700A490A4B8882D6
:10B9B00008830222DA60C871C8720848007C400619
:10B9C00004D410B5012008F039F910BD704700000B
:10B9D000E8220020A022002000050050442F002073
:10B9E00010B5104A0220927B042182B0D20706D102
:10B9F0006A4610700C485170C16868468847032336
:10BA000001216C460422A37021710020E270208085
:10BA1000064C6846E168884700212269084690473D
:10BA200002B010BD243000207C960200449E02002B
:10BA300038B52F4C608A002804D0401E0004000C4A
:10BA400060821FD0A08A2B4A0021002806D0401E09
:10BA500080B2A082012801D85170A182E08A00281A
:10BA600006D0401E80B2E082012801D85180E182D8
:10BA7000208A214D00281CD0401E0004000C20828A
:10BA800009D016E0BFF34F8F1D491C48C860BFF3B3
:10BA90004F8F00BFFDE71B481B4A81760120927B38
:10BAA0000146D20705D16A4610705170E9686846B0
:10BAB0008847608B002806D0401E0004000C60837D
:10BAC00001D100F027F8A08B002807D0401E000409
:10BAD000000CA08302D10D490120087000212A69C1
:10BAE000084690470A48002102690846904738BD39
:10BAF000A0220020E82200207C9602000400FA0523
:10BB000000ED00E0442F002024300020D22100204E
:10BB1000449E0200F0B50126214C83B07002A06063
:10BB200020490020487048801F4D2049A882E882A3
:10BB30000870287A00280FD1022304226F460121C1
:10BB4000BB703971FA703880194F6846F9688847B8
:10BB500000213A6908469047164A0621927B012047
:10BB6000D20706D16A46117050701348C168684602
:10BB70008847134A114902201160A060114CEE71F0
:10BB8000207C400602D4012008F058F8E0880E49D5
:10BB9000884201D9800900E04E20288303B0F0BD1F
:10BBA00000050050E8220020A02200200E220020E4
:10BBB000449E0200243000207C9602000303000013
:10BBC00004070050442F002087130000FFB50446EF
:10BBD000A178C078090217464018617822780904D4
:10BBE00012068918401881B0401C3ED004F054FD64
:10BBF0001F4D287804F0F2FD1E481F4B0268A888EC
:10BC00000121984200D3A98068780026FA2809D338
:10BC10002878401CC0B22870042802D317482E7020
:10BC200041706E70A178E07809024018617823783D
:10BC300009041B06C918431869780C20104C4843A6
:10BC400000198360C260049A491CD307DB0F7A0095
:10BC5000134303716970A888401CA88004F046FD56
:10BC6000287804F0DDFD0748067005B0F0BD00003F
:10BC70001C410020E0210020FFFF0000A022002046
:10BC8000503500205A230020F3B581B00020204C0D
:10BC9000009000F0C9FB002114224A43A05CFF2859
:10BCA00009D110194378FF2B05D18378FF2B02D1DE
:10BCB000C378FF2B0BD0491CC9B2C829ECD300981C
:10BCC000401CC0B200900A28E3D303B0F0BD114B72
:10BCD000D981142359430E4BC918F0C90E4BF0C338
:10BCE0000968196001990B0E09498B5401991022BA
:10BCF000090C41700199090A81700199C170001DF8
:10BD00000299FFF7B9FA009800F0AAFB03B0F0BD62
:10BD100014570020CC210020BC300020F0B40D4A84
:10BD2000002180000C4D166884466246521893002C
:10BD300000208A0092191F18145CEF5D7C40145497
:10BD4000401CC0B20428F6D3491CC9B20429ECD364
:10BD5000F0BC7047F4210020AC310020F8B5474C0E
:10BD6000207A00284AD0A06B4549401C0025A063DA
:10BD7000884201D92572A563FF26A07A01363701D2
:10BD8000002813D0062839D20100794409794918CE
:10BD90008F4434020406080A40202DE030462BE090
:10BDA000202029E0042027E0384625E02079401CA7
:10BDB000C0B22071022802D0042804D01FE031480C
:10BDC00001F064FA1BE02571002001F05FFA04F035
:10BDD00081FF2D49884203D00120A07240200BE052
:10BDE00001220821684606F04BF868460078822850
:10BDF00005D00220A072304601F048FAF8BD607903
:10BE0000401CC0B260710228F8D3657106F094F846
:10BE1000206B002806D0E16B884205D10320A07278
:10BE20002020E9E7E06B01E0184800682063A07972
:10BE3000401CC0B2A0710528E0D3A571E121A06B20
:10BE40000901401A1249884201D3FFF763FE606B73
:10BE5000002807D0E16B081AE062082805D2042008
:10BE6000A072C9E7E06B6063F8BD0C2803D9052018
:10BE7000A0723846C0E76163F8BD0000A022002030
:10BE8000C0A80000FFFF000015EF0000E021002027
:10BE9000A18C0000002803D0002A01D0002B01D182
:10BEA0000C20704710B50BF093F910BDF0B40025CD
:10BEB00085B0194E2A4600950195029503956B466B
:10BEC0002C460495002917D907783F09092F01D876
:10BED000303700E037371F7007785B1C3F073F0F94
:10BEE000092F01D8303700E037371F70641CE4B2E7
:10BEF000401C5B1C8C42E7D36846815C002907D05C
:10BF00007543C9B2521C6D18D2B2815C0029F7D1B9
:10BF1000284605B0F0BC7047F100020070B5364B02
:10BF200082B0DA785978002802D0012860D158E030
:10BF3000002A5DD0521E1006000ED87058D12E4D2A
:10BF40009E7801242D4A6868002E03D04688002E72
:10BF50000CD032E09C700178D97001796B46197071
:10BF6000C088019012696946002038E00830686096
:10BF70000FD00688002E0CD09C700178D970017902
:10BF80006B461970C088019012696946002090477D
:10BF90002EE04088002810D1FF2906D000290CD0BF
:10BFA000491E0806000E587007D018781449C000C2
:10BFB00040188038C06F6860DEE7002098705878BD
:10BFC000FF2806D0002807D0401E0006000E58703B
:10BFD00002D068688078D8701269002101209047EB
:10BFE00006E0002901D1002A02D0012002B070BD74
:10BFF000002002B070BD0000C4210020C8960200DD
:10C000001C9602000148016800200847C8960200FB
:10C010000F49CA78002A02D00A78062A15D00022D1
:10C020008A70CA700278002A0DD00122CA70027884
:10C030000A7042784A7000780649C000401880387B
:10C040000349C06F4860002070470120704700001E
:10C05000C42100201C96020010B507F06DF910BD38
:10C06000F0B4FF2400230C251E466E43164D7719AD
:10C070007D688D4208D10C246343134CE054301981
:10C080004160BA60F0BC7047FF2C02D16D1C00D13A
:10C090001C465B1CDBB2C82BE5D30C4DFF2C2B8858
:10C0A0000AD00C267443084E3055A01982605B1CE0
:10C0B00041602B80F0BC7047C82BFBD9044901209C
:10C0C0000870F0BC70470000284100206823002061
:10C0D0005C23002030B50F4C83B0216800208847D6
:10C0E0000D4801900D4D68460580012040040290E6
:10C0F000A268684690470A480A49406E884206D0BE
:10C10000FF2229460448FFF7C9F800F00DF803B0F4
:10C1100030BD0000B09A02002841002068090000EC
:10C12000284A00207856341210B50C4C84B021688F
:10C13000002088470B490A4848660B4801900B4885
:10C14000694608800120400402902269002002A96B
:10C150009047E1686846884704B010BDB09A020075
:10C1600078563412284A002028410020680900002F
:10C1700010B501F099FE10BD70B50B4D0446A868CE
:10C1800006F0E0FFFF23610CE003F5330022C01846
:10C1900051415A000023FFF72DF801460022A868FC
:10C1A00006F07EFF70BD0000F0930200F0B4CA07F5
:10C1B00021D0491EC9B24A08825C891E12099446E0
:10C1C000C9B24A08891ECCB26108A41EE7B2455C18
:10C1D0007C08835C045DBF1E29073F062E097F0E85
:10C1E0001A072507C05D120F1B09090F2D0F24091F
:10C1F0000007000F22E04A08891ECCB26108A41E85
:10C20000E4B212186508203A09182D18D27F203997
:10C21000203DA41E24061307640E20181B0FC97F9F
:10C22000ED7F20389C46C07F0B072E0704071209BC
:10C230001B0F0909360F2D09240F00090C4F7843F5
:10C240000C4F7C430C4F00197D430C4F40197E432B
:10C250007D27FF00794364277B4380190A277A43AF
:10C260004018C018F0BC81186046081870470000DC
:10C270008096980040420F00A08601001027000021
:10C2800038B52B48007C400709D42A4C206806F0BA
:10C2900059FF01210022C903206806F001FF00F0C8
:10C2A00087F82548407A01280FD003F067FD23491D
:10C2B0004879401CC0B248710A282AD30020204C7B
:10C2C00048712078002824D107E00BF08DFE00286B
:10C2D00000D001200BF050FCE9E708891949884299
:10C2E00017D119480078002813D106F0B3F90320BC
:10C2F00007F0B8F9002801D006F000FA07202070F6
:10C300001248009012480023016822226846FFF775
:10C310005DFC00F0E1FBFFF721FD02F06BFD0D4835
:10C320000078002803D105F007F8FFF79BF938BD26
:10C33000442F0020F09302002430002080200020B1
:10C34000FE200020FFFF0000AD200020AAAAAAAA1C
:10C35000E0210020AB22002070B50C4D0446286877
:10C3600006F0F0FEFF23610CE003F5330026C01851
:10C3700071415A003346FEF73DFF0146002228680E
:10C3800006F08EFE0248067070BD0000F0930200B9
:10C390008020002010B51021012001F087FA01F063
:10C3A00019FA04461021012001F08BFA204610BD35
:10C3B0001A4A506C401C5064D178491CC9B2D170E3
:10C3C00005292AD30021D170154A117815392B2956
:10C3D00012D251780C290FD800290DD091781F293D
:10C3E0000AD8002908D0D178182905D211793C291A
:10C3F00002D251793C2910D300B50A4983B0C96BE8
:10C400000818694609F032FE69464878401C4870B1
:10C41000002004F085FA03B000BD7047A022002080
:10C42000EE2200200430002030B50A4C0546216879
:10C4300083B0002088470848019008486946088072
:10C4400003212803490440180290A16868468847E0
:10C4500003B030BDB09A020014570020A40F0000B2
:10C4600030B50C4C0546216883B0002088470A4847
:10C4700001900A48694608800321280349044018AE
:10C4800002902269002002A99047E1686846884727
:10C4900003B030BDB09A020014570020A40F000072
:10C4A000F7B58AB014466A46384800F049F902AA3E
:10C4B0002146374800F044F90724364F012604AAE4
:10C4C00002A9354800F03CF904A9019800F06AF887
:10C4D000009902AD484000900722294606A8FEF7C1
:10C4E000CBFE2A4606A92D4800F02AF96500691CF2
:10C4F0003046884038420BD002A8014606900722F9
:10C5000007A8FEF7B9FE07A92448069A00F018F913
:10C5100004AA02A9204800F013F904A9009800F029
:10C5200041F8019907224840019002A8014606906F
:10C5300007A8FEF7A1FE07A91848069A00F000F91F
:10C540003046A84038420AD002AD0722294606A844
:10C55000FEF792FE2A4606A9104800F0F1F8641E84
:10C5600064B2002CABDA009901984840019008466B
:10C57000019948400090084600990A9A4840019065
:10C580006946074800F0DCF80DB0F0BD189C0200C9
:10C590009C9C0200FC7E0000D69C0200849D020050
:10C5A0005A9C020033B589B000200D4602906A46BD
:10C5B00009A91E4800F0C4F800206C46215C2A5CE2
:10C5C00051402154401CC0B20728F7D3019900986C
:10C5D000002389B205910490069306AA079304A943
:10C5E000134800F0ADF806980799019100901149A1
:10C5F0000020235C5A0852181278DB0702D0120779
:10C60000120F00E01209029B401C1B011343C0B231
:10C61000203102930828ECD318BA029003AA02A989
:10C62000054800F08DF803980BB030BDC49B0200A4
:10C63000089D0200C49A0200F69B0200F7B58AB07A
:10C6400014466A46384800F07BF802AA214637486B
:10C6500000F076F80024364F012602AD0722294665
:10C6600006A8FEF709FE2A4606A9324800F068F837
:10C6700065003046A84038420BD002A8014606901B
:10C68000072207A8FEF7F8FD07A92A48069A00F036
:10C6900057F804AA02A9284800F052F804A9019802
:10C6A000FFF780FF009907224840009002A801464A
:10C6B000069007A8FEF7E0FD07A91E48069A00F0BD
:10C6C0003FF830466D1CA84038420AD002AD072220
:10C6D000294606A8FEF7D0FD2A4606A9154800F00F
:10C6E0002FF804AA02A9144800F02AF804A9009817
:10C6F000FFF758FF0199641C4840E4B20190082CF0
:10C70000ABD30099484001900846019948400090F9
:10C71000084600990A9A484001906946074800F087
:10C720000FF80DB0F0BD0000189C02009C9C0200A8
:10C73000FC7E00004A9D0200D69C02005A9C02002A
:10C74000F0B5964642780025801C9446002A1CD9F4
:10C7500000231C4602461278401C521ED6B25A06CE
:10C76000130EF7087207CF5D520F8026D64037426E
:10C7700001D001221343641CE4B2082CEAD37246B0
:10C7800053556D1CEDB26545E2D3F0BD70B514464E
:10C790000546FFF753FF2246294608320846FFF7B1
:10C7A0007FFE2246294610320846FFF747FF70BD3C
:10C7B000F8B50102090E00910024070E01040E0EC7
:10C7C000C5B22046FFF730FE00201421164A41432F
:10C7D000535CBB421ED18B185A7800998A4219D1FA
:10C7E0009978B14216D1D978A94213D10F49C8819D
:10C7F000142148430C494018E4C80D49E4C10068BD
:10C800000860FF2214211846FEF748FD2046FFF776
:10C8100027FEF8BD401CC0B2C828D6D3641CE4B2C1
:10C820000A2CCED3F8BD000014570020CC210020E4
:10C83000BC300020F0B583B0154C0268416802940A
:10C84000144C124B2568019565680095A568E4684D
:10C85000AE46A446002415017544D61875405611FD
:10C8600066447540491B019D0E017519CE1875402F
:10C87000009E4F11BE197540521B029D641C5B1B2C
:10C88000202CE8DB0260416003B0F0BD2037EFC62A
:10C89000B979379E88990200F0B583B0144C0268CC
:10C8A00041680294134C0023256801956568009542
:10C8B000A568E468AE46A4461C46029D0E015B19BD
:10C8C000019D4F117519CE187540009E641CBE194C
:10C8D0007540AA1815017544D6187540561166445E
:10C8E00075406918202CE8DB0260416003B0F0BDA0
:10C8F000B979379E88990200F0B585B00022009280
:10C90000019202920392244D55222A70AA226A7043
:10C910000F22AA70214AE870908C030A2B7168716B
:10C92000126C100EA871100CE871100A28726A724D
:10C930001B48A9720178E97241782973817869737B
:10C94000C178A9730179E973407928741020A8701F
:10C95000A81C04F0BFFAAA78124900245054A87801
:10C96000C01CC6B2F01E01110FD005110A482101EA
:10C970000F18F81C6946FEF7B1FDF81C1022694635
:10C98000FEF77AFC641CA542F0D832460249082022
:10C9900003F002FD05B0F0BDC42E0020042F0020DE
:10C9A000E8210020C62E002003490968014201D079
:10C9B0000120704700207047BC2100200149002061
:10C9C00008607047BC21002002490A6882430A605F
:10C9D00070470000BC21002002490A6802430A6037
:10C9E00070470000BC210020F0B587B00027334815
:10C9F000009701970297039741680068059104909A
:10CA00003C466A4606AB0697052104A8FFF742FAA2
:10CA1000684600792A4D902836D16846407900282A
:10CA200032D1684607718771C771264A694602A8E4
:10CA3000FFF7ACFE254982200F7048708F70CF70D1
:10CA40000820214E087105203070AA20287002AB02
:10CA50001A5D3078641C0A54401CE4B23070082C13
:10CA6000F6D31B4877600770FF2147700131FEF74E
:10CA70001CFC2F602F712C46164B154A3178134839
:10CA8000FFF708FAAA20207011490878902802D0F0
:10CA9000692808D00AE04878002807D1BB206870D0
:10CAA000012007B0F0BD4878832804D0CC20A870BE
:10CAB000002007B0F0BD032007B0F0BD28D2010070
:10CAC0002C22002051220020242200207732002036
:10CAD000B732002028220020F0B589B00027009747
:10CAE000019702970397644804970597069707975D
:10CAF000089781883C46002972D0491E0904090C18
:10CB0000818001D104F03EFC5C4D287A002824D0BD
:10CB1000401EC0B20221287200284ED06846877697
:10CB2000C17657480378002B17D04278002A14D0DA
:10CB30008178002911D0C678002E0ED06C46267759
:10CB40006177A277E3772F72A979FD221140A9714D
:10CB5000C7708770477007700124E87900281BD0E0
:10CB6000401EC1B20120F726E97100292ED0AB7911
:10CB7000190711D569468F76C876002004A92A5C6A
:10CB80000C18401CC0B222730628F8D33340580852
:10CB9000EF714000A8710124A879102641070029EF
:10CBA0002ADAC1061DD5697A002925D003216A46F3
:10CBB000D176EB210840A87120E0B2206A46907639
:10CBC000D176A979FD200140A971C5E7A9796A4606
:10CBD000490849003140A971B1219176D076DAE750
:10CBE00047E0A87A401E0006000EA87204D1FEF7A6
:10CBF000D9FEA8793043A871002C3AD05520694657
:10CC00000874AA2048748E74BB201E4AC874908C85
:10CC1000030A0B754875106C020E8A75020CCA75F2
:10CC2000020A0A76487604A8023004F053F96946ED
:10CC30008A7C123150546946887C0024C01CC6B2DC
:10CC4000F01E0511002D0FDD210104A80F18F81C9E
:10CC50006946FEF743FCF81C10226946FEF70CFB00
:10CC6000641CE4B2A542EFDC324604A9082003F0BC
:10CC700093FB09B0F0BD0000442F00206C3200206F
:10CC8000C4220020042F002070B40022144C11464E
:10CC9000635C1D09854221D01D072D0F85421DD0E3
:10CCA000491CC9B20629F3D303071D0E00210F2327
:10CCB0001D4311E0635CFF2B03D0DE43360702D037
:10CCC00006E0655403E01A0912010243625401228E
:10CCD000491CC9B2062901D2002AEBD070BC7047AA
:10CCE0006C32002010B5114CA078002801D0401EF5
:10CCF0001AE0207800280ED001280CD16078002896
:10CD00000AD00A210128617005D106F0D1FF084937
:10CD100000200870207010BD06480749008888422E
:10CD2000F9D1012060701F20A07010BD8123002068
:10CD3000FF20002088200020FFFF0000F0B5002524
:10CD4000244E83B02C462F462846FFF76DFB224920
:10CD50000020CA7801928A7800924A78097896462B
:10CD60008C4628E0142201465143735C019A934299
:10CD70001DD18A19537800998B4218D19178714549
:10CD800015D1D178614512D1144B00215418247962
:10CD90005C54491CC9B21029F8D3002411191F1979
:10CDA000641C0979E4B23974082CF7D30127401CBC
:10CDB000C0B2C82801D2002CD4D06D1CEDB20A2D0F
:10CDC000C2D3012F02D0002003B0F0BD012003B078
:10CDD000F0BD0000145700209C22002051220020AA
:10CDE00070B50A4C0025E078FA2806D3E570A078E3
:10CDF000401CC0B2A07003F0F1FCA078042804D35A
:10CE0000E5702846A57003F0E9FC70BD1C410020C8
:10CE10000D490878012816D10D4B0C4800221860E6
:10CE20001B1F18601B1F18600A4B186001230A485B
:10CE30001B03C3605B10C3605B10C360DB00C36097
:10CE40005B00C3600A7070472022002003030000CB
:10CE5000300700503807005000050050F8B5012594
:10CE60000027AD031B4E0C46002805D001281ED01C
:10CE7000022820D00120F8BDF560062000F008F956
:10CE8000B560F560202000F003F920680002000E74
:10CE900000F0FEF820880004000E00F0F9F8207879
:10CEA00000F0F6F8B56000F00BF93846F8BD08461A
:10CEB00000F070F8F8BDF560062000F0E9F8B56004
:10CEC000F560C72000F0E4F8B56000F0F9F83846E6
:10CED000F8BD00000005005010B5084C207801286E
:10CEE0000BD004F029FA07490548086001210648DB
:10CEF0004A0382608A038260217010BD20220020D4
:10CF0000030300003807005000050050F8B54568DD
:10CF1000002D23D00488876801261B48B603C6600D
:10CF2000032000F0B5F83802000E00F0B1F8380424
:10CF3000000E00F0ADF8F8B200F0AAF8002C1FD0F7
:10CF40008027802C0CD900222B4611460F480097D1
:10CF500009F02CFE803CA4B280350AE00220F8BD26
:10CF6000E0B2002200902B461146084809F01EFE50
:10CF70000024002802D006490F200870002CE0D1C0
:10CF8000014886600020F8BD00050050C89D0200E1
:10CF90000C22002070B501250E4EAD030446F5604D
:10CFA000062000F075F8B560F560D82000F070F844
:10CFB00020680002000E00F06BF820880004000ECC
:10CFC00000F066F8207800F063F8B56000F078F8BB
:10CFD000002070BD00050050F8B506460120284D20
:10CFE000800314460F46E860062000F051F8012047
:10CFF0008003A860E860022000F04AF83802000EC2
:10D0000000F046F83804000E00F042F8F8B200F0E4
:10D010003FF8002C1DD00027802C00970FD900234B
:10D0200080223146174809F0C1FD002801D005F0E3
:10D0300065FB803CA4B28036002CEDD109E0E2B261
:10D04000002331460F4809F0B1FD002801D005F05A
:10D0500055FB0127BE03AE600B4CEE60052000F0CF
:10D0600017F8A52000F014F8C00702D0641EF8D20B
:10D0700003E0002C01D105480770AE60F8BD000048
:10D0800000050050C89D020010270000A1210020CB
:10D0900001B582B0FF206946087101200246009068
:10D0A00001AB02A9054809F081FD002801D005F077
:10D0B00025FB6846007903B000BD0000C89D020052
:10D0C000F8B501270B4E0A4CBD03F5600520FFF7AC
:10D0D000DFFFA520FFF7DCFFC00702D0641EF8D2F7
:10D0E00003E0002C01D104480770B560F8BD0000D2
:10D0F00050C3000000050050A1210020F8B546688B
:10D10000002E31D002888568FF20E9B20130401A34
:10D11000C4B2100AD7B2002928D000283FD0101B73
:10D1200080B2070AC0B20090224629463046FFF777
:10D1300053FF2D193619781EC4B2002F0FD0FF27C8
:10D1400001373A4629463046FFF746FF2046641E1F
:10D15000FF35FF3601350136E4B20028F1D10098E1
:10D1600000282DD0024627E00220F8BD002811D06B
:10D17000401EC4B2FF22013229463046FFF72CFF81
:10D180002046641EFF35FF3601350136E4B2002823
:10D19000F0D13A4629463046FFF71EFF10E0A7427D
:10D1A0000AD9381BC7B2224629463046FFF714FF7A
:10D1B000291930193A4601E029463046FFF70CFF9D
:10D1C0000020F8BD0748C16BC9070AD00021C16320
:10D1D00005480069C00CC007C00F02D103495D209B
:10D1E0000870704740610040000500500B2200208D
:10D1F00010B504460CA184B008684968009000206E
:10D200000191029002AB224605216846FEF742FEDC
:10D210002079902802D16079002802D0002004B043
:10D2200010BD012004B010BD008400000400000007
:10D2300070B5124982B0104800260860104869464F
:10D24000888004F079F801250E4C6D05E560012019
:10D2500003F05FFE6946888803F066FE69468880B1
:10D260000023022201A90848009609F09FFCA5604E
:10D27000E56002B070BD00000303000054070050D9
:10D28000FF1F000000050050C89D020031B582B0AC
:10D2900004F052F801240C4D6405EC60012003F009
:10D2A00038FE6946088903F03FFE69460881002080
:10D2B00003460090022202A9044809F077FCAC6002
:10D2C000EC6003B030BD000000050050C89D0200B6
:10D2D000F0B48C46014600200646002A25D98C5D14
:10D2E0006346250924071B18240F092D02D8303561
:10D2F0001D7007E02F460A3F052F01D8373500E0A3
:10D30000FF251D70092C02D830345C7007E02546DB
:10D310000A3D052D01D8373400E0FF245C70801CE5
:10D32000761CB6B280B29642D9D3F0BC70470000EA
:10D33000F3B50127294E81B07F04B7600021112089
:10D3400009F02AFF264C3069400CC007C00F03D1FA
:10D35000641E2404240CF6D1112009F02FFF002CA8
:10D3600038D0F7600A2003F0D4FD01208004B060BB
:10D370000021122009F010FF00250724B7600A20C1
:10D3800003F0C7FD0A2003F0C4FD3069F7604003D5
:10D39000C00FA0402843C5B20A2003F0BAFD0A20FE
:10D3A00003F0B7FD2046641EE4B20028E6D1122047
:10D3B00009F004FF029800280A4809D0B0600A204A
:10D3C00003F0A7FDB76001980570012003B0F0BD20
:10D3D000F060F4E7002003B0F0BD0000000500504D
:10D3E0007017000000000400F1B501262A4D7604F4
:10D3F000EE607700AF600021122009F0CDFE274CCF
:10D400002869800CC007C00F03D1641E2404240CBB
:10D41000F6D1122009F0D2FE002C35D007240120CD
:10D42000EE600099A040084201D1EF6000E0AF60DB
:10D430000A2003F06EFDAE600A2003F06AFD20466C
:10D44000641EE4B20028EAD1EE60AF600021122031
:10D4500009F0A2FE0A2003F05CFDAE600A240A2057
:10D4600003F057FD2869800CC007C00F03D0641E6D
:10D470002404240CF3D12869800CC007C00F05D008
:10D48000122009F09BFEEF600020F8BD122009F089
:10D4900095FEEF600120F8BD0005005070170000F8
:10D4A00010B5112009F08AFE122009F087FE00F065
:10D4B00043F810BDF8B501201D4D4004E8600A2076
:10D4C00003F027FD0127BF04AF600021122009F0FF
:10D4D00063FE184E34462869800CC007C00F03D184
:10D4E000641E2404240CF6D1122009F067FEAF60FC
:10D4F000002C1BD001246404AC600021112009F031
:10D500004BFE2869400CC007C00F03D1761E3604BD
:10D51000360CF6D1112009F051FEAC60002E05D07A
:10D52000EF600A2003F0F5FC0120F8BD0020F8BDF3
:10D530000005005070170000F8B501271E4E7F044B
:10D54000F7600A2003F0E5FC7800F0600A2003F0A1
:10D55000E0FCB7600021112009F01EFE174C2546A3
:10D560003069400CC007C00F03D16D1E2D042D0C77
:10D57000F6D1112009F022FEB760002D19D001204C
:10D580008004B0600A2003F0C4FC0021122009F0DE
:10D5900003FE3069800CC007C00F03D1641E240451
:10D5A000240CF6D1122009F009FE002C01D0012034
:10D5B000F8BD0020F8BD0000000500507017000005
:10D5C000F0B500208446614899B00068019060463B
:10D5D000850001980095435D2D181795AE466A7831
:10D5E000A978E878DC091B265D0074436540EEB23B
:10D5F00013967500F40914961B2674436540EEB229
:10D6000011967500F40912961B2674436540EFB21B
:10D61000C409450074436540EEB20B970F9610960F
:10D62000CC091B264D0074436540EEB2089609965E
:10D630000A96D4091B26550074436540EDB20C9739
:10D64000EE091B276C007E437440E4B218950D94DC
:10D6500066000E94E4097C436640F6B2069607968F
:10D66000129E149C0C9F7440079E55407C40754050
:10D67000099E6C407500F6091B277E437540EEB28B
:10D68000149675001596F6097E437540159EEDB209
:10D690004E406E407440109E049505957500F60945
:10D6A0007E437540EEB2159675001696F6097E43D8
:10D6B0007540EDB20295039545406C40019E009D7A
:10D6C0007455189D0E9C079E0C9F654075405F40E9
:10D6D0006F400A9E059D4E406E407740169E039D0A
:10D6E00046406E40774075466F70119C0B9D069EBC
:10D6F0005C406C4056407440089E149D6E40049DF2
:10D700006E4074400F9E4640029846401798744001
:10D710008470139858400B9B58400D9B5340069AB9
:10D720005340049A58404A405040159A0F9951402E
:10D73000029A514048401799C8706046401C844680
:10D74000042800DA43E719B0F0BD0000F4210020FE
:10D750000D480068417B427A4273427942724278B6
:10D76000427141708178827A827081728179827B84
:10D7700082718173C178C279C270C27AC271C27B70
:10D78000C272C17370470000F4210020F8B507464B
:10D790000E4D01200E4C0E46287033463A46E16B82
:10D7A000206C0AF08FFC01280DD133463A46E16B1C
:10D7B000206C0AF0E1FD012805D133463A46E16BC1
:10D7C000206C0AF0A7FF00212970F8BD0A22002072
:10D7D000042F002070B588B0002069460125304E26
:10D7E0000870ED03F5600A2008F0BCFEB560052066
:10D7F00008F0B8FE002001F04FF8012001F030F8E9
:10D80000002817D1022008F0ADFE01A9522008F02F
:10D81000E9FB064603F0FAFD224D6846C07B2875F9
:10D820006846007C6875002E06D00524002001F0B3
:10D8300017F8204608B070BD0820694688756A460A
:10D84000194901A808F012FB1648694689884183E6
:10D850006946C98881836946C87B082805D00428A1
:10D86000E4D1032068730024E0E704206873FFF725
:10D8700065FA012801D00424D8E703F061FA0028F2
:10D8800007D0FFF7B1F8012806D0032806D00224FC
:10D89000CCE7012008B070BD0024C7E70324C5E72A
:10D8A00000050050822200203733002070B50D465D
:10D8B000044602F085FEA8430146204600F00CF81D
:10D8C00070BD70B50D46044602F07AFE284301464D
:10D8D000204600F001F870BD30B5002283B001246D
:10D8E0000B4D64030192EC608006400E6B4618718C
:10D8F000597113460092022201A9064809F056F90F
:10D90000002801D004F0FAFEAC6003B030BD000086
:10D9100000050050C89D0200F8B53649364E4B68E8
:10D92000002081005A5C7254CA18891954784C70CE
:10D9300094788C70D278401CCA700428F1D32C28BB
:10D9400056D281002C4A00918A18114620390B7F4B
:10D950002D0A2D021D439C46FF234C7F1B029D4335
:10D96000FF262302360233401D438B7F3602B54328
:10D97000FF271E043F043E403543CE7F2D022D0A73
:10D9800037063D4387071DD11C4FB6463E5DFB5C05
:10D99000FF2424021B02A54323401D437346FB5C66
:10D9A00024021B04A54323401D436346FC5C2B0259
:10D9B0001B0A24062343124C8508645D1D0A664039
:10D9C0002D0235430B7C0C4C009E6B40A3554B7CC9
:10D9D0002C04240E634053708B7C2C02240E634075
:10D9E0009370C97C2B0E5940401CD1702C28A8D3B1
:10D9F000F8BD0000F4210020AC3100207C9702002B
:10DA00007C990200074906480860091D0860012149
:10DA10000548490481604900816089008160704740
:10DA2000030300004407005000050050002801D007
:10DA30000220704710B500F003F8002010BD000070
:10DA400044490878002803D143490878002802D0C7
:10DA5000401E08707047F8B5404F3879002801D053
:10DA6000401E387100F09CF80446787801210028A7
:10DA70000AD003263A4A002501280AD0022833D0CA
:10DA800003284DD07D70F8BD002CFCD07970BC709F
:10DA9000F8BDB878A04200D07D7032494978052998
:10DAA00003D3FDF79DFF7E70F8BD1F213971022160
:10DAB00079700C28F8D00D28F6D07E7080001058B0
:10DAC000FF28F1D0FEF788FFB8780D28ECD0410090
:10DAD0002548022208184038C08F1146C304DB0CC9
:10DAE0000420FDF74BFFF8BD387900280BD1B8783A
:10DAF000A04208D11D497E7080000858FF28F2D04E
:10DB0000FEF76AFFF8BD002CFCD17D70B87880006C
:10DB10001058F970FEF760FFB8780D28D7D1F8BD1E
:10DB2000F888401C80B2F8807D2805D303F01CFDE6
:10DB300003F0AEFFFD807D70B878A04202D1397944
:10DB4000002904D08442EAD0FD807D70F8BD3E718A
:10DB5000F8BD00000F220020A02200200222002099
:10DB6000A8990200E82200202C9A0200E099020005
:10DB700010B503490C20086003F0F6FC10BD00004E
:10DB800078070050002907D00449CA7802708A78C3
:10DB900042800020C8707047012070470222002098
:10DBA00070B504F051F9050021D11248407B0128DD
:10DBB0001DD111490869114C800FC007C00F07D152
:10DBC0000869800FC207D20FFAD02078401C20705D
:10DBD000207805280BD30A480026067103F0ACFA1A
:10DBE00003F0D0FB03210120FDF792FC26702846AC
:10DBF00070BD0000243000200005005002220020EB
:10DC0000E82200200748417E01290AD910B50649BB
:10DC10008183064800780003014388B2FFF736FB92
:10DC200010BD7047D8660020FF1F00008023002031
:10DC300010B50A48084A0078517E0003022903D330
:10DC4000918B014388B204E0002904D00021918324
:10DC500080B2FFF71BFB10BDD86600208023002098
:10DC600010B50649888BC0438883054909780903A4
:10DC7000084380B2FFF70AFB10BD0000D866002001
:10DC80008023002010B50020FFF700FB10BD00002E
:10DC900010B50248FFF7FAFA10BD0000F1040000C9
:10DCA00010B5064904480978808B0903084380B2FF
:10DCB000FFF7ECFA10BD0000D8660020802300209A
:10DCC00010B50020FFF7E2FA10BD10B5FF2020309C
:10DCD000FFF7DCFA10BD000010B5064904480978CA
:10DCE000808B0903084380B2FFF7D0FA10BD000013
:10DCF000D866002080230020F8B52C4E002802D0E2
:10DD0000012850D13FE0002506202F464743BC198B
:10DD1000E078002823D0401E0006000EE0701ED1DF
:10DD2000607800281BD0A07800281DD00020A070AB
:10DD30000C20294641431E480818406880476078F7
:10DD4000FF2804D0401E0006000E607007D0F05D72
:10DD500041004118174808182038C07FE0706D1C3A
:10DD6000EDB2052DD0D31EE00120A0700C2010498B
:10DD7000684308588047F05D410041180D48081875
:10DD80002038807FEAE70020062141438919CA78BC
:10DD9000002A02D14978002901D00120F8BD401C99
:10DDA000C0B20528F0D30020F8BD0000D8660020DE
:10DDB000089E0200F09D020010B50020FFF766FAF1
:10DDC00010BD000010B50248FFF760FA10BD00005A
:10DDD000542B000010B5064904480978808B0903CC
:10DDE000084380B2FFF752FA10BD0000D866002049
:10DDF0008023002010B50020FFF748FA10BD10B5B1
:10DE000043204002FFF742FA10BD000010B506495A
:10DE100004480978808B0903084380B2FFF736FA7B
:10DE200010BD0000D86600208023002010B5FFF749
:10DE3000FFF91E210148FDF738FA10BDD866002011
:10DE400070B504461348002505701E211248FDF7E1
:10DE50002CFAA07805281AD2062148430E492288B8
:10DE600040188280A0780623E27858430A54A078AC
:10DE70002279584340184270A07801225843401834
:10DE8000C270A078584340188570002070BD0120F2
:10DE900070BD000080230020D866002001490020CA
:10DEA00088707047442E0020F0B585B000200090A7
:10DEB0000190029003902948007C400643D4284DED
:10DEC000A87F002841D0C01E00240011254F002843
:10DED00011DD2001C619F01D6946FDF7ADFAF01DF0
:10DEE00010226946FDF7C8F9A87F641CC01EE4B281
:10DEF0000011A042EDDCBA79B81D145C02F0EAFF13
:10DF0000A0420DD1381D07F03DFE00280BD0AA7F9E
:10DF1000391D082002F00CF9F879BB2808D00BE075
:10DF2000F8790D2101E0F8790521FEF7E5FCF3E72A
:10DF3000FF200D49D530088000200C49A8770870D3
:10DF40003220FEF719F905B0F0BD00F03BF80028CB
:10DF5000F9D03220FEF710F905B0F0BD442F0020B3
:10DF6000A42E0020442E0020FC2000200B220020A4
:10DF7000F8B50C460A4601460E480090FDF77CF9BC
:10DF80000D4E012574700D4FB570142C01D9142459
:10DF90007D7022460A48009905F0FEFD7860002851
:10DFA00000D03D7034707078A04202D800203070EC
:10DFB0007070F8BD852E0020442E0020982100208E
:10DFC0002C27002070B5184D687800281BD0012838
:10DFD00019D0164E70783178401A0206120E21D0F0
:10DFE000314608460978413009180124142A0BD813
:10DFF0000F4805F0D1FD6860002800D02C7000208B
:10E0000070703070687070BD1422094805F0C4FD4E
:10E010006860002800D02C703078143030706C703C
:10E02000012070BD002070BD98210020442E0020EA
:10E030002C27002070B515460A4684B004461E46BB
:10E040006946104602F02EFF304601A902F02AFF71
:10E05000284602A902F026FFFF2069460873012224
:10E06000204600F0DBFF04B070BD0000FFB589B0B2
:10E0700008460C996B4CCB074A08002B02D0521C67
:10E08000A27000E0A270D2B26749FFF721F9002028
:10E090000290664808906648069066480790664D6C
:10E0A000029C296800208847644E654869460496AA
:10E0B000888101202103800408180590A96803A81D
:10E0C000884700255D4A2901505C022807D017289F
:10E0D00005D0192803D0152801D0162862D1514B3C
:10E0E0000298587088184468601C5BD05548210E0F
:10E0F0000170210C4170210A8170C47000901430AD
:10E10000864604200026844633460098C15C70464B
:10E110000A0909078019090F092A02D8303202704A
:10E1200007E017460A3F052F01D8373200E0FF22EB
:10E130000270092902D83031417007E00A460A3AD4
:10E14000052A01D8373100E0FF214170B61C5B1C65
:10E150009BB2B6B26345D8D33548017846292FD053
:10E1600030490820C870324801901C38C1780091AD
:10E17000012104910C9800992B4F0026814211D85F
:10E18000401A03903846009A0199FDF7B4F8002828
:10E1900041D0761C0398F6B2864203DC04987F1CBB
:10E1A0000028EFD16D1CEDB2C82D8BD30298401C16
:10E1B000C0B202900A2800D271E700200DB0F0BD75
:10E1C0004178462907D017490722CA70411C1848D0
:10E1D000FDF752F8C7E7817846290BD01149062090
:10E1E000C8700798069902880A8042884A80808809
:10E1F0008880B8E7C178462906D00A4B0522DA7034
:10E20000089903F04CFFAEE706490420C8700846A1
:10E21000096AC161A7E70B986D1C0460E8B20DB0F4
:10E22000F0BD00005C230020B86600207B230020A6
:10E23000782300207A230020B09A0200904A002020
:10E24000840C000064230020F3B585B005980628EF
:10E2500017D08A78C878120280184A780978120490
:10E260000906511840180390434E444D002420469F
:10E270000C21434A4843115C03290ED006290CD0D7
:10E2800027E08A79C879120280184A79097912043C
:10E290000906511840180390E6E780184268531C9D
:10E2A0000ED083683768BB420AD2FF2103F027FFF4
:10E2B0002888002801D0401E2880FDF735FF08E09F
:10E2C0000598814205D10398824202D1052007B00A
:10E2D000F0BD641CE4B2C82CC9D36888002802D100
:10E2E000A888002845D00027264C002021688847B0
:10E2F000254D264869460195088001203903800490
:10E3000008180290A1686846884700241E49200129
:10E310000B5C059A934224D14518696803988142A1
:10E320001FD11B4800268079072800D00646E968DF
:10E33000A868FDF74DF900281BD16878010602D5C1
:10E34000002007B0F0BD0121B140084209D00E48BD
:10E3500021010818C168A868FDF768F90028F0D005
:10E3600007E0641CE4B2C82CD0D37F1CFFB20A2F94
:10E37000BAD3012007B0F0BDE021002068230020BF
:10E3800028410020B09A0200904A0020840C00002E
:10E39000E8210020F0B50C460B4687B00546014643
:10E3A00002AA002000F078F80106354E090E04D0CC
:10E3B00013203070052007B0F0BD234602AA29467D
:10E3C0000120FFF753FE04001BD02E4F2001C1197E
:10E3D00008468038826F0192C06F009020394D7CD2
:10E3E00002982949020E0A70020C4A70020A8A70C9
:10E3F000C87000990198FDF7EBF80390052805D047
:10E400001AE014203070012007B0F0BD1F48641ED0
:10E41000E4B2407802F0DEFC2001C019FF22102196
:10E42000FCF73CFF1A494888002801D0401E48806C
:10E430001648407802F0EAFC280619D41549002055
:10E440008979072900D0084601218140294204D159
:10E4500017203070052007B0F0BD00990198FDF736
:10E46000E5F8002804D018203070052007B0F0BD72
:10E4700004A9029802F016FD039807B0F0BD000051
:10E480000C220020904A0020602300205C23002002
:10E4900068230020E8210020FFB585B005981D46BF
:10E4A0000F4600287ED16D4908780006000E0090C6
:10E4B00079D00024082D21D3E80711D06908C819A4
:10E4C0002038837FC27F1B02D218437F007F1B044A
:10E4D000000618181018795C00010C0904433BE091
:10E4E0006808C0192038827FC17F12028918427FD4
:10E4F000007F1204000610180C182DE0E80716D053
:10E5000000206A08511C07D0521C21023C5C401CB0
:10E510000C43C0B28242F8D82409072D02D0052D41
:10E5200003D019E00F20000715E04D4813E000204C
:10E53000690807D06A0821023C5C401C0C43C0B249
:10E540008242F8D8062D02D0042D03D004E0FF202B
:10E55000000600E0434804436D1E0098EDB2002819
:10E56000A7D90598002873D1200100090490200242
:10E57000000A039000262003000B0290A0B2019035
:10E580000C21394A7143505C022809D0172807D062
:10E59000192805D0152803D0162801D0182853D1E2
:10E5A000891801E057E01CE04868421C4CD02F4A13
:10E5B0008B68126893420CD20846FF2103F09FFD3E
:10E5C00026490888002801D0401E0880FDF7ACFDD0
:10E5D0003AE0010F0F2906D0844235D1079908602F
:10E5E000701C09B0F0BD010EFF2907D0020104998B
:10E5F0001209914228D10F2109070AE01C49020D96
:10E600008A4208D002020399120A91421CD1FF21CA
:10E6100009060843E2E71749020C8A4209D00203BF
:10E620000299120B91420FD10D49084307990860D6
:10E6300006E0019982B2914206D181B20798016049
:10E64000701C09B0F0BD03E0761CF6B2C82E97D35B
:10E65000042D00D32DE7002009B0F0BD6823002071
:10E660000000F0FF0000FFFF28410020E021002013
:10E67000FF0F0000FFFF0000F0B585B000252B4C18
:10E680000020216888472A4E2A486946019608805A
:10E6900001202903800408180290A1686846884771
:10E6A0000024234A2001861871688C46491C2CD00E
:10E6B000105C192805D0162803D0152801D017287A
:10E6C0001ED10395B1681C4F8A018B0E89023F78D9
:10E6D000120FC90E9F4213D1174B5B7893420FD193
:10E6E000154A92788A420BD11B07B9069B09D206BC
:10E6F000C918920A8A18114952186146FDF7B0FCF0
:10E70000FF2210213046FCF7C9FD641CE4B2C82C7E
:10E71000C7D36D1CEDB20A2DB1D3FDF705FD0398EB
:10E7200002F074FB002005B0F0BD0000B09A0200BA
:10E73000904A0020840C0000E8210020FB7E0100AC
:10E74000F0B5274F85B00025264C0020216888476A
:10E75000254E264869460196088001202903800439
:10E7600008180290A1686846884700241E4A2001C4
:10E77000115C8C46172922D186180395B1688A014D
:10E78000880E130F8902CA0E3978814212D1787827
:10E7900098420FD1BB7893420CD1000789068009BB
:10E7A0000818D906890A411811480A186046716884
:10E7B000FDF756FCFF2210213046FCF76FFD641C6C
:10E7C000E4B2C82CD2D36D1CEDB20A2DBCD3FDF738
:10E7D000ABFC039802F01AFB002005B0F0BD00006E
:10E7E000E8210020B09A0200904A0020840C00002A
:10E7F000FB7E010070B516460C460546012901D086
:10E80000022C08D10C460C34E4B2002D02D0451E77
:10E81000EDB200E00425601C410040180521FCF722
:10E82000BFFC6100891940184019A9084018072148
:10E83000FCF7B6FC481C70BD06490548086006494F
:10E84000086001210548490381608900C160704763
:10E8500003030000340700503C070050000500503F
:10E8600010B500280AD003211420FFF72AF814203D
:10E8700001F0A6FEC043800709D10AE0032114205D
:10E88000FFF714F8142001F09BFE800701D012203E
:10E8900010BD002010BD000070B5054672211C207F
:10E8A000FFF71AF80F210120FFF716F800210220C8
:10E8B000FFF712F800210320FFF70EF83F21042094
:10E8C000FFF70AF83F210520FFF706F80821084660
:10E8D000FEF7ECFF0F2441212046FEF7FDFFE1216A
:10E8E0002046FEF7F9FF43212046FEF7F5FFC4213D
:10E8F0002046FEF7F1FF88211720FEF7EDFF364C8A
:10E90000012D3FD000211220FEF7E6FF0021132049
:10E91000FEF7E2FF40211520FEF7DEFF262124202E
:10E92000FEF7DAFFA1781820FEF7D6FF217927201D
:10E93000FEF7D2FFE1782620FEF7CEFF00210D2062
:10E94000FEF7CAFF00211E20FEF7C6FF00206072FE
:10E9500040210C20FEF7C0FF61792820FEF7BCFFA4
:10E9600083211420FEF7ADFFE1791620FEF7A9FF01
:10E97000217A3820FEF7A5FF72211C20FEF7ACFF9C
:10E98000002070BD83211220FEF7A6FF83211320F3
:10E99000FEF7A2FF00211520FEF79EFF6821182038
:10E9A000FEF79AFFFA212720FEF796FFA17929208A
:10E9B000FEF792FFC0211E20FEF78EFFE178262091
:10E9C000FEF78AFF5D211920FEF786FF00210D204A
:10E9D000FEF782FF0120BAE782220020F8B5044644
:10E9E000064616480025844214D96D1C6F00791C18
:10E9F0003046FCF7D5FB04467F1C6743B74200D086
:10EA0000441C0E488442F0D801200003854201D303
:10EA10000A4C451E2805010F2A209031FEF75CFFA5
:10EA2000E9B22B20FEF758FF2004010E2C20FEF740
:10EA300053FFE1B22D20FEF74FFFF8BDFFFF0000AE
:10EA4000FFB50546002083B00646019005980D9C51
:10EA50001F4600283BD00498002838D00C98002886
:10EA600035D0002C33D0E048407A012802D1072D60
:10EA700000D10D2500210120FEF72EFF0A2001F014
:10EA80009FFD002808D080210A20FEF71AFF0A20E7
:10EA900001F096FD0028F6D17F210420FEF71CFF2F
:10EAA0007F210520FEF718FF002D13D0012D11D076
:10EAB000032D0FD080211220FEF703FF80211320A9
:10EAC000FEF7FFFE082F02D20E9808280BD30B206A
:10EAD00007B0F0BD80211220FEF7E8FE8021132050
:10EAE000FEF7E4FEEEE7384307D00E980001384306
:10EAF000C1B20D20FEF7F0FE03E000210D20FEF76D
:10EB0000EBFE012007F02EFD002D13D0012D11D0BA
:10EB1000032D0FD0042D0DD0022D0BD0052D0BD0C1
:10EB2000062D09D00A2D09D00498007800090F2875
:10EB300007D008E0AD4922E0AD4920E00F214902AD
:10EB40001DE0082D23D0A848012102780020002ACA
:10EB500004D9401C4900C0B29042FAD303270803ED
:10EB6000BF03C1190E2300200122401C5200C0B275
:10EB70009842FAD31003C019814200D901460846D1
:10EB8000FFF72CFF072D13D00D2D11D015E096485F
:10EB9000012102780020002A04D9401C4900C0B29B
:10EBA0009042FAD3049840788006800E4143D5E71E
:10EBB0008D48817A0920FEF78FFE002706E0049831
:10EBC000C15D0920FEF788FE7F1CFFB205988742D1
:10EBD00001D23D2FF3D30C210120FEF77DFE8021D1
:10EBE0000D20FEF76EFE059887420ED20A2001F036
:10EBF000E7FC3E2806D20498C15D7F1CFFB20920C5
:10EC0000FEF76AFE05988742F0D3042001F0D8FC95
:10EC10004006FAD501210420FEF75EFE0020029096
:10EC2000082001F0CDFC4007400F012804D90A203C
:10EC300001F0C6FC002818D000202070082001F048
:10EC4000BFFC4007400F012833D90A2001F0B8FC6F
:10EC5000002827D0092001F0B3FC22780C998854B1
:10EC60002078FE2817D3012617E0042001F0A8FC25
:10EC7000C007D5D00198002806D080210C20FEF7CF
:10EC800020FE0E2007B0F0BD01200190FF20F530DE
:10EC9000FCF75AFAC4E7401C20700A2001F090FCEF
:10ECA0000028D7D1082001F08BFC4007400F012835
:10ECB000CBD80A2001F084FC002811D0092001F0F3
:10ECC0007FFC22780C9988542078FE2801D30126F5
:10ECD00001E0401C20700A2001F072FC0028EDD1F8
:10ECE000002E06D080210C20FEF7EBFD102007B08F
:10ECF000F0BD002D20D0012D1ED0022D1CD0032DE3
:10ED00001AD0042D18D00A2D16D00020009006200D
:10ED100001F056FC074682211720FEF7DDFD082191
:10ED20000120FEF7D9FD40210C20FEF7CAFD78072F
:10ED300011D50B2D07D009E080210C20FEF7C1FD75
:10ED4000002007B0F0BD2078002802D020780428E9
:10ED500001D2012000902078022804D27907890F7F
:10ED600001D001210091390701D50121009100282E
:10ED700001D101210091F90701D0022802D30098A6
:10ED800000281FD07E210420FEF7A6FD7F2105204C
:10ED9000FEF7A2FD0A2001F013FC002808D0802114
:10EDA0000A20FEF78EFD0A2001F00AFC0028F6D1A9
:10EDB0000298401CC0B20290052800D230E70E2015
:10EDC00007B0F0BD38070AD000210120FEF784FD0E
:10EDD00080210C20FEF775FD0B2007B0F0BD00214F
:10EDE0000120FEF779FDA7E78222002094040000AD
:10EDF000941701004B48007800287DD070B586B08C
:10EE000049A14B48FCF75CFA00254A4C00280FD07A
:10EE1000152069460871012048718871C87108720F
:10EE2000487201A9002001F07BFD2564FCF772FE09
:10EE300041A13F48FCF744FAA52600280CD004A8BD
:10EE400006F0D0FD68460673012103A801F0B2FF69
:10EE5000062104A801F0AEFF38A13548FCF730FACE
:10EE6000002809D038480069400EC007C00F51D0B3
:10EE7000072136A001F09EFF36A12D48FCF720FAAD
:10EE8000002815D003F058F85A206A461073012163
:10EE900003A801F08FFFE06B6A461070010A517001
:10EEA000010C9170000ED0700421684601F082FFC1
:10EEB0002BA11F48FCF704FA002814D003F03CF8FB
:10EEC0006A461673012103A801F074FFE06B6A46DD
:10EED0001070010A5170010C9170000ED070042165
:10EEE000684601F067FF21A11148FCF7E9F9002805
:10EEF00008D0607A012800E012E00ED006211EA0A2
:10EF000001F058FF20210A48FCF7CFF91C48057092
:10EF100006B070BD07211BA0ACE706211BA0EFE7E0
:10EF200070470000A6210020556E6C6F636B0000D7
:10EF3000EC230020A02200206D61630046616E6713
:10EF40005F546573740000000005005046616E67F1
:10EF50005F4E47005254435F5465737400000000D5
:10EF60004765745F54696D6500000000466F625F1D
:10EF70005465737400000000466F625F4E470000E6
:10EF80008320002046616E675F4F4B00466F625FD3
:10EF90004F4B000010B503230B7000220C4B401D9B
:10EFA000C91D845C9C54521CD2B2102AF9D3094A60
:10EFB000012050720020487007480078887003F0E4
:10EFC00049FB4B210548C9008180FDF745F810BD7C
:10EFD0007C300020CC21002058230020442F00202A
:10EFE00070B5054602200870CC1D6879FCF790FCCE
:10EFF000012807D008487D2140880901884204D9AA
:10F000000B2007E01720607070BD68790122A91DF0
:10F0100000F004F8607070BD68230020F7B588B078
:10F02000182001900E46C878897832780902401875
:10F03000717812060904891800274018FF250390EB
:10F040003C46401C02D125200BB0F0BD204601F00B
:10F05000C1FE724900204969009170490979704ADE
:10F0600003019A1853689646039A9C4693420BD123
:10F070006A4AB62904D07346DB68009D9D420ED9CA
:10F080005471274605469081002C0BD10C23024673
:10F090005A43644BD2185368039A934202D10A2010
:10F0A0000BB0F0BDFF2D09D15C4AB62906D06346EE
:10F0B0005B1C03D15471274605469081401CC0B2A9
:10F0C000C828CCD3641CE4B20A2CBFD3FF2D5CD07B
:10F0D000384601F07FFE514851498581477128012A
:10F0E0004418A44601941ECC86464F481EC04C4A84
:10F0F0007046089911546446039860604748007947
:10F10000B52833D0002430198279C17912028918C8
:10F110004279037912041B06D21889180091827A69
:10F12000C17A12028A18417A037A09041B06C918A7
:10F130005418067B01990098C86001988460019872
:10F14000467036480079B62803D038484188491CB3
:10F150004180384601F05AFE02960194294638460D
:10F16000089B039A02F016FF0BB0F0BD102404A90F
:10F17000301DFCF761F9102204A9301DFCF77CF862
:10F18000311D0398FCF780FDBDE724480079B628BF
:10F190000ED0234D0024204601F01CFE0020020169
:10F1A000A95C152907D0172905D0192903D02AE011
:10F1B00019200BB0F0BD51194968491C23D000013A
:10F1C00008992954501903994160B279F1791202D2
:10F1D00089187279337912041B06D2188918C16014
:10F1E000B27AF17A12028918727A337A12041B0603
:10F1F000D21889188160317B4170204601F006FEEB
:10F2000000200BB0F0BD401CC0B2C828C7D3641C9E
:10F21000E4B20A2CBFD301980BB0F0BDCC21002082
:10F22000904A0020284100206C30002068230020F4
:10F2300070B5084643780E4C15460021CA00A25C02
:10F240009A420ED10B4ACE0013713119801D0A1D4E
:10F250000BD04A682946401C9047A05D687000208A
:10F2600070BD491CC9B21329E8D3012070BD00004C
:10F27000E4960200CC21002070B5084643780D4C7E
:10F2800015460021CA00A25C9A420CD1CE00311969
:10F29000801D0A1D0BD04A682946401C9047A05D7E
:10F2A0006870012070BD491C0906090EEAD00220D1
:10F2B00070BD0000DC96020002220A7000220A7271
:10F2C00043791E4AC91D012B06D0022B15D0032BF2
:10F2D00021D0042B27D017E08379012B02D02720DF
:10F2E000487011E0117C082319431174017AC37925
:10F2F0000802184340BAD08006E080790128107CCB
:10F3000006D0EF21084010740D49012008707047A5
:10F3100010210843F7E780790128107C01D0FB21F8
:10F3200006E0042107E080790128107C02D0DF216B
:10F330000840E8E720210843E5E70000442F0020CB
:10F34000A221002010B403230B70437900220B4844
:10F350000124C91D022B0CD0012B0CD022220848FD
:10F360004A7000788870002A01D10648047010BCE9
:10F3700070474473F3E700234373F0E72430002021
:10F3800058230020A22100200220087000200872CB
:10F3900003490120087004490248086170470000D1
:10F3A00082200020A9030000CC210020014908721E
:10F3B00070470000CC210020F8B502230B70002517
:10F3C000CC1D41792748284B2A462F46002907D0D3
:10F3D0001E26012912D0022923D0032930D01DE096
:10F3E000A7709979F92211404908490099711F4A7B
:10F3F00007211180878001F0C5FF10E0808801217E
:10F4000000280AD0987908439871DE71FF2098543B
:10F41000521CD2B2062AFAD300E0B025A170657062
:10F42000F8BD1349CF708F704F700F70808800281F
:10F4300015D098790221084398711E72A170EEE7E9
:10F440000321A1708088002809D0987904221043F4
:10F4500098715E729972A170FCF75CFBDFE7B025D2
:10F46000DDE70000442F00206C320020FC2000204B
:10F47000C422002004220A7000220A724079C91DA9
:10F48000012802D02720487070470120044A887064
:10F49000927BD20702D00220C8707047C8707047B4
:10F4A00024300020F8B511220A70CC1DC279017AEF
:10F4B00012028918827940791204000610180F1878
:10F4C00000261121601CFBF7F0FE0025E8B201F0D8
:10F4D00081FC274A00200101891849688F421FD109
:10F4E00001210E430001115CE17080184178217107
:10F4F0008168090E61718168090CA1710189090A8D
:10F50000E171017A2172C168090E6172C168090C4A
:10F51000A1728189090AE172007B20730A2502E049
:10F52000401CC828D7D36D1C0A2DCFD3114A002008
:10F530000C214143891849688F4212D102210E43A0
:10F540000C214843115C617380188168090EA17316
:10F550008168090CE1730189090A2174007A6074D9
:10F5600002E0401CC828E3D300206070A670F8BDFC
:10F57000904A00202841002010B508200870CC1DBA
:10F5800000F0FCFB0E48C179002914D00020607007
:10F590000C480178A1704178E17081782171C178BF
:10F5A00061710179A1714079E0710748407AC00723
:10F5B000C00F207210BD0121C1712320607010BDE9
:10F5C000CC210020E82100202430002030B50A4C56
:10F5D000054683B0206CFBF746FE6946284601F0DD
:10F5E00061FC01A9206C01F05DFC08216846FCF774
:10F5F0005DFC03B030BD0000042F002030B589B0A1
:10F600001248029012480190124804901248039048
:10F6100012480090684600F0B1FE114CE56B206C7A
:10F62000FBF721FE06A9284601F03CFC07A9206C47
:10F6300001F038FC082106A8FCF738FC094988616C
:10F640000020C8720849088009B030BD31F20100BD
:10F6500079F2010041F90100ADF3010095F90100D3
:10F66000042F0020CC210020B8210020F8B515225D
:10F670000A70CC1D00216170817942790802104323
:10F6800045BAFA212846FBF78BFD0F4601F004F836
:10F690004E4EB07801F0A2F8002D07D0F0780C2182
:10F6A00048434B4940188068401C24D1484F0025EE
:10F6B000284601F093F800200C214143C9198968BC
:10F6C000491C02D0A900081808E0401CC0B2FA2862
:10F6D000F2D36D1CEDB2042DEAD33E483D49884279
:10F6E0005DD00546FA21FBF75BFDC0B2B0700F4656
:10F6F000F17001F073F8FDF773FB002D16D0F07870
:10F70000411CB94203D0002F10D1F9280ED10C2290
:10F7100050432F4A0021C94380188160B07801F01E
:10F720007FF8F078401CF070FDF75AFBB078F17864
:10F73000FA225043081887B20125F0780C21244A98
:10F74000414389188968491C13D000F0CFFFF07835
:10F75000A11DFCF7ABF8B078F178FA2250430818F5
:10F76000010AA170E070B088000A207130796071E0
:10F77000F8BDB178FA225143411889B2012D08D061
:10F780008F420CD0401CF070FDF72AFB01F03EFECA
:10F79000D3E7401C0025F070FDF722FBCDE70025E4
:10F7A000A570E57025716571FF220E21A01DFBF784
:10F7B00075FD09490120087008480570357075709D
:10F7C000B570F57000F092FFF8BD00001C410020FC
:10F7D00050350020AAFF00005A230020A12200205B
:10F7E00070B582B0C11C04466E460D46304602F02C
:10F7F0006EFC6846FDF71EF82846314602F067FCAD
:10F8000000221C2011466318491C9B78401E5A4058
:10F810000006C9B2000EF6D1A07F90420AD1E0786E
:10F82000702807D1A01D01F04AFB01461048026C68
:10F83000914205D001210320FBF76AFE02B070BDA2
:10F84000617922790902114349BA81842146102243
:10F850000E310848FBF710FD01F094FD0121062050
:10F86000FBF756FE04490120087002B070BD00008D
:10F87000042F00202A2F0020A1210020F0B5002213
:10F88000944602220A701E4AC91DD31D8E46417934
:10F89000FF320126F933001D2132012907D0907B68
:10F8A000FD210840907300205863186320E004791C
:10F8B000417924020C19C17887780D043F06E919B3
:10F8C0006518077A447A3F02E419C77981793F04C1
:10F8D00009067F18E419AC4203D32620844600268B
:10F8E00007E0977B02210F4397731D635C63807A67
:10F8F000107660467146487002480670F0BD000000
:10F90000042F0020A221002010B503200870002041
:10F910000872034800784872FCF744F810BD0000F4
:10F920005823002070B5032000250870CC1DFCF77B
:10F93000F1F8024865700078A07070BD582300206F
:10F94000012204290DD079290BD07E2909D007295D
:10F9500007D0162905D0712903D0272901D02829DD
:10F960000BD1094B04291A7009D0792907D07E29B7
:10F9700005D0162903D0712901D06D2901D1034981
:10F980000A70034988727047A2210020A12100203B
:10F99000CC2100200120704704220A7000220A7244
:10F9A00043794B728A72427901231248C91D012A98
:10F9B00009D0022A15D0032A18D0042A02D1007CCB
:10F9C000800611D47047027C1207FBD5CB70C28829
:10F9D000120A0A7180794871C91F0878801C087062
:10F9E0007047007CC006FBD5CB707047007C400799
:10F9F000FAD47047442F0020F0B5054683B00020AC
:10FA00000090029019200E460190062D0ED0B1787C
:10FA1000F0780902411870783278000412068018D4
:10FA20000F1800F0ABF9781C0BD00DE0B179F0792C
:10FA300009024118707932790004120680180F18F3
:10FA4000EFE7252001906CE0009801F0C3F94B48E6
:10FA50000024210109184968B94258D1152D0FD049
:10FA6000162D0DD0172D0BD0182D09D0192D07D01C
:10FA700042482101405CA84218D0172003B0F0BDD5
:10FA80003F483E4B427801788078120789069209F8
:10FA9000C0068918800A08183A4942182001C1187E
:10FAA0004968185CFCF7DCFAFCF73EFB042D02D138
:10FAB0003846FCF77DFE344D2101AC810098687119
:10FAC0002E4808185CC8314910385CC1FF2210214B
:10FAD000FBF7E4FB2E494888002801D0401E4880EF
:10FAE000009801F093F96E79AD89202429492348C3
:10FAF000FBF7DBFB304601F06DF9204829010818BF
:10FB00004068B84200D00024204603B0F0BD641C19
:10FB1000E4B2C82C9DD30098401CC0B200900A28C3
:10FB200092D31D480178002904D0002101700E20D5
:10FB300003B0F0BD152D05D0162D03D0182D01D022
:10FB4000192D17D108213046FDF720FE002811D1CC
:10FB5000192D03D0162D01D0172D02D10F480068A2
:10FB6000029039462846029AFCF77AFAFCF7DCFA4A
:10FB700000200190019803B0F0BD0000904A0020E1
:10FB8000E8210020FB7E0100CC2100206C30002009
:10FB900068230020840C00005C2300201C2200202D
:10FBA00070B504220A70041DCD1D4079A11CFFF719
:10FBB00023FF6870A07AA870E07AE87070BD00003A
:10FBC000F8B5044604200870CD1D142221461E48B5
:10FBD000FBF752FB1D4E7D2170880901241D8842D0
:10FBE00001D90B2028E06078152824D0162822D0CF
:10FBF000172820D018281ED019281CD0144FA278FE
:10FC00003979B6291AD0E11CFFF708FA6870A07894
:10FC1000C0000019C078A870A078C0000019007951
:10FC2000E8706878002805D170880A49884201D3B5
:10FC30000120B871F8BD17206870F8BDA11CFFF74E
:10FC4000EDF96870E3E70000D03000206823002061
:10FC5000CC210020CF07000010B402220A7000223D
:10FC60000A72427927230124001DC91D012A05D1EA
:10FC700082780948012A06D0022A08D04B7007482A
:10FC8000047010BC7047817B4908490001E0817B0A
:10FC900021438173F3E7000024300020A2210020DB
:10FCA00010B5022008700020087204490120087075
:10FCB00003210846FBF72CFC10BD0000CC210020DE
:10FCC00090B583B002220A70CC1D41796A4611704A
:10FCD00081795170C1799170017AD170417A117135
:10FCE000807A507120480127C7706946002000F0D3
:10FCF00017FE60706A4610787D2109014118280CB2
:10FD0000000408435178FF22120409049043114073
:10FD100008436A4691780002000A09060843D2782F
:10FD2000310A090211436A461279FF231B021202AB
:10FD300099431A4011436A4652791B0212049943AF
:10FD40001A40114306F0AAFB0849C863084900207D
:10FD5000086008490F700849086001210846FBF750
:10FD6000D7FB03B090BD0000CC2100200430002060
:10FD7000E0220020A2210020E422002070B5264DC0
:10FD800082B00020E871684600F052FE002840D1A1
:10FD9000072269462148FBF76FFA68460078632816
:10FDA00037D8684640780C2833D8684680781F28B2
:10FDB0002FD86846C07817282BD8684600793C2889
:10FDC00027D8684640793C2823D8154C69462046F8
:10FDD00002F08EF9617823780A0798069209801854
:10FDE000A278D606B60A8019E678F606F60B8019D0
:10FDF0002679B606360D80196679B606B60E8019D4
:10FE0000084E686130601846FEF7F4FCA0710120CE
:10FE1000E87102B070BD0000CC210020EE2200206D
:10FE2000E821002050350020F0B50646087800256E
:10FE300087B00C46002828D07F49804801F02EF872
:10FE40007F487D4F808C391D01F028F87C48B91D12
:10FE5000006C01F027F820787A4FC01DC0B22070E6
:10FE6000082E14D00A2E73D00E2E72D00B2E70D006
:10FE7000204601F02FF82178C8552078C01CC7B261
:10FE80003A466D49304600F087FA07B0F0BD0107E9
:10FE900003D00009000110302070204601F01AF84C
:10FEA0002178C8552078C01CC7B26748807981077F
:10FEB00003D4410701D4C00703D05F48C078BB28F2
:10FEC000E3D03C225C496148FBF7D6F9F81E0011EB
:10FED00000240590002812DD5748210108180490DD
:10FEE0006946C01CFBF7FAFA049810226946C01C48
:10FEF000FBF7C2F9641C0598E4B2A042ECDC54485C
:10FF000000240178002907D004701022514952487A
:10FF1000FBF7B2F901F036FA50480178002906D013
:10FF2000047001F009F901F02DFA02F093FB4C483E
:10FF300001780029A4D0002101704A484A4C007879
:10FF40000028607A26D0002804D0012805D023E0BC
:10FF50002AE052E001206072054608F045F8011ED3
:10FF60004248017804D000290DD002290BD00BE0C3
:10FF7000012901D0022900D10125002101700120B1
:10FF8000E072217308E00125012101702173002036
:10FF9000E07201E0012804D0002DCBD001F0F2F98D
:10FFA0006EE700206072F9E7410703D0C008C00087
:10FFB00008302070204600F08DFF2178C855207849
:10FFC0000024C01CC7B2F81EC01004900028E7DD52
:10FFD000194821010918C91C0D46684602F077F836
:10FFE0006846FCF759FC2846694602F070F8641C24
:10FFF0000498E4B2A042EBDC42E7410703D0C0081A
:020000040002F8
:10000000C00008302070204600F064FF2178C855F9
:1000100020780024C01CC7B2F81EC510002DBFDD1B
:100020000548E1000818C01CFCF736FC641CE4B26B
:10003000A542F5DC24E70000F8300020AA550000B6
:10004000042F0020FA3000206C32002034310020D0
:10005000D52100207C3000202A2F0020CC21002038
:10006000CF210020EF210020243000204430002048
:10007000F8B50878294E15460C46AA2802D16078B2
:10008000552828D0254A2648127871788018FF29EB
:1000900039D08A421ED22A462146FBF7EDF8307845
:1000A0004019C0B230707178884213D31D48817FE7
:1000B00000290FD17278827719491B48FBF7DCF8C9
:1000C0003C211748FBF7F1F80020707030700A20CF
:1000D000FCF752F8F8BDA7783C2F03D9134901204B
:1000E0000880F8BD3C210E48FBF7DFF8FF1C777055
:1000F00035702A4621460A48FBF7BEF830787178F9
:100100008842D3D2F8BD2A462146FBF7B5F8044809
:10011000FFF766FB002070703070F8BDF021002002
:1001200070310020A42E0020482E0020FC2000204A
:10013000F7B58A4D0C46E96884B0064688472D68B5
:10014000874B21463046069AA84700284FD02046C4
:1001500000F0B0FE8349884249D1A71C0E2E0BD077
:100160000A2E09D00B2E07D0A078C55DA01C00F088
:10017000B1FEA8423BD117E006980025C01EC01072
:100180000090002809DDE8000019C01CFCF752FBB4
:100190006D1C0098EDB2A842F5DCA078C55DA01CEE
:1001A00000F098FEA84222D16C486D4F4368BA1CFB
:1001B000A11C30469847002819D0012872D0E57854
:1001C0001B2D16D01C2D14D0A01D00F078FE01466A
:1001D0006548006C81420CD0A01D00F070FE401CF0
:1001E00007D0012D03D0402D01D02C2D11D107B007
:1001F000F0BD5D485D49C26B20460A3002908A42DC
:1002000037D1A01D00F05BFE01465748006C8142CB
:1002100012D00320B870FD70B872B91C3046FFF7D9
:1002200003FE05210120FBF773F9002301220421BD
:100230000320FBF7A3FB89E0029800F040FE014693
:100240004A4881424FD0029800F039FE4649C863BF
:1002500001F098F80020FBF7A3FAFBF7D3FA444823
:1002600001F00DFF4048C06BFFF7B0F9414908604D
:1002700039E01B2D01D01C2D39D1A11D684601F09C
:1002800026FF6846FCF7D6FA684600F018FE0146DD
:100290003848006881423448006C04D0A11D00F049
:1002A00001FE33E04EE0A11D00F0FCFDFFF766FD0E
:1002B00001A800F004FE30490968884213D20320E7
:1002C000B870FD700520B872B91C3046FFF7ACFD60
:1002D00004210120FBF71CF9002301220421032043
:1002E000FBF74CFB32E01B2D24D01C2D22D00298B2
:1002F00000F0E5FD01461C48C06B81421AD0012D7B
:1003000000D174E7402DFCD02C2DFAD00320B8701A
:10031000FD700420B872B91C3046FFF785FD062138
:100320000120FBF7F5F80023012204210320FBF74D
:1003300025FB0BE00948BA1C8368A11C304698478E
:10034000002803D1B91C3046FFF76EFD0348E17861
:1003500002693046904707B0F0BD0000E43000204D
:10036000F830002055AA0000042F002078563412DF
:1003700068230020E4210020E021002005490268D4
:100380000A6042684A6082688A6002690A61C068DD
:10039000C8607047E430002010B50B46082803D130
:1003A000D1B21846FDF7E4FD03480178002901D0D9
:1003B0000021017010BD00009821002030B51349C4
:1003C0000446084608302DC885B003950293019273
:1003D0000090886904900E486168FAF7E1FE049085
:1003E000012069464872094802F0C0FD00226946B2
:1003F000064802F087FC054802F02CFC2278002118
:10040000024802F0BDF905B030BD00009896020028
:1004100040420F0010B5002805D001280AD04868D6
:10042000002807D00DE04868002803D00846FFF7F1
:10043000C5FF06E0044802F0ABFB012003490006BB
:10044000C860002010BD0000989602000005005012
:10045000024901480860704703030000600700502C
:10046000F8B522490020086048608860C8602049CB
:10047000086048601F4FFC68002C35D01E490026DC
:1004800049683A69891A0D022D0A2068A84218D8CD
:100490002D1A86192246107CE46900280FD000200E
:1004A00010747B69002B07D0916950699847002828
:1004B00005D002F023F902E0516990698847002CC9
:1004C000E3D17978B878814206D1401CC0B2B870C7
:1004D000022801D10020B87000060849800D0E5096
:1004E0000120074900050860F8BD000040110140E7
:1004F0000011014034210020001501404C21002052
:1005000000E200E0002210490C2008600F4800695A
:100510000F49C006CB79C00F184313D18878401C0F
:10052000C0B2887002280DD310B58A70FBF7F2FABA
:10053000FFF724FC0748012301681C220648FBF74B
:1005400045FB10BD7047000010070050000500502B
:10055000A0220020E0210020A420002010B5FFF7F9
:10056000D1FF124CE07900281ED005F0DDFA0028FA
:100570001AD1208B401E0004000C208314D1E0719E
:10058000E0720B490220C8600A48007C400602D491
:10059000012003F053FBFFF7F1FB0748012301683B
:1005A0000C220648FBF712FB10BD0000A022002021
:1005B00000050050442F0020E0210020A42000204E
:1005C00070B50126104D82B07403EC608006400EB9
:1005D000694680300871002003460090324601A928
:1005E0000A4806F0E3FA002801D002F087F800225A
:1005F00001AB11460548009606F0D8FA6846007926
:10060000AC6002B070BD000000050050C89D020043
:1006100030B5114D83B02968002088470F4C082061
:100620006946019408800B2000040290A96868467E
:1006300088472068401C04D101200005206000F09C
:100640000FF86068401C04D105204004606000F091
:1006500007F803B030BD0000B09A020070230020FC
:1006600010B50B4C84B021680020884709480190E0
:100670000820694608800B200004029022690020AF
:1006800002A99047E1686846884704B010BD0000A1
:10069000B09A02007023002030B5114D83B0296854
:1006A000002088470F4C0C206946019408800E48B2
:1006B00040680290A96868468847E1780020FA29D6
:1006C00000D9E070A178042900D9A0706178FA29D6
:1006D00000D960702178042900D9207003B030BDA2
:1006E000B09A02001C4100207023002070B5304DEC
:1006F0003049A86884B0401C2F4CA860884205D1BE
:10070000A12000036060FFF7ABFF3DE02B4988426A
:1007100005D1A32000036060FFF7A2FF34E0284961
:10072000884205D1292080036060FFF799FF2BE004
:100730002449884205D1A52000036060FFF790FF9F
:1007400022E02149884205D1532040036060FFF731
:1007500087FF19E01D49884205D1A720000360608A
:10076000FFF77EFF10E01A49884205D11520C0032B
:100770006060FFF775FF07E01649884204D1A920A1
:1007800000036060FFF76CFF134E0020316888475C
:100790000C2069460195088060680290326900204B
:1007A00002A99047F1686846884704B070BD000010
:1007B0001C410020A086010070230020400D030092
:1007C000801A060020A10700C027090060AE0A00B9
:1007D00000350C00A0BB0D00B09A020070B50C4CA7
:1007E0000546216884B0002088470A4E0A486946B9
:1007F0000196088009482903006840180290A16802
:10080000684688473068401C00D1306004B070BD35
:10081000B09A020050350020CC0B0000702300205D
:1008200070B50546314884B0816C324C491C8164F6
:100830002F48814205D1412080032060FFF710FF3F
:100840003DE02D48814205D1432080032060FFF721
:1008500007FF34E02948814205D1112000042060BF
:10086000FFF7FEFE2BE02648814205D1452080039C
:100870002060FFF7F5FE22E02248814205D12320C7
:10088000C0032060FFF7ECFE19E01F48814205D14C
:10089000472080032060FFF7E3FE10E01B48814201
:1008A00005D1092040042060FFF7DAFE07E0184870
:1008B000814204D1492080032060FFF7D1FE154E0C
:1008C0000020316888471448019014486946088020
:1008D00020682903401802903269002002A990473D
:1008E000F1686846884704B070BD0000D040002021
:1008F000A086010070230020400D0300801A06002E
:1009000020A10700C027090060AE0A0000350C00D6
:10091000A0BB0D00B09A020050350020CC0B0000A7
:1009200010B5242402280FD2002802D001280BD1B0
:1009300009E0084600F012F9012805D100242046FC
:10094000FFF76EFF00E00024204610BDF0B583B035
:10095000FCF7A6FD002668460672012202A9304671
:1009600000F06EF9684600F063F8294D294FE86BF6
:10097000411C01D0002803D12748E86301203870CA
:10098000264C2078FF2804D107F02EFB267001208A
:10099000387068460078224C15382B2817D26846E4
:1009A00040780C2813D8002811D0684680781F287A
:1009B0000DD800280BD06846C078182807D26846A2
:1009C00000793C2803D2684640793C2814D3694614
:1009D000E86B05F04BFB69464878401C4870684658
:1009E00000F0BCF8012802D10020FFF719FF0D48E4
:1009F000066001204002A0600C490B480860091DF8
:100A0000086001204004A0604000A06003B0F0BD79
:100A100004300020A2210020806653614430002071
:100A200000050050E02200200303000044070050AE
:100A300010B582B0044607226946022000F050F843
:100A4000684680790A22010900075143000F0818FF
:100A5000207068464079C106C90F00075143000F56
:100A600008186070684600794007400FA07168461A
:100A7000C0788106890F00075143000F0818A07045
:100A8000684680788106890F00075143000F0818D7
:100A9000E070684640784106490F00075143000F57
:100AA00008182071684600784106490F0007514335
:100AB000000F08186071084906480860091D0860A1
:100AC000012106484904816049008160002002B08C
